:020000040000FA
:100000000C9463000C948B000C948B000C948B006C
:100010000C948B000C948B000C948B000C948B0034
:100020000C948B000C948B000C948B000C948B0024
:100030000C948B000C948B000C948B000C948B0014
:100040000C945A040C948B000C94CA040C94A404D1
:100050000C948B000C948B000C948B000C948B00F4
:100060000C948B000C948B000000000024002700EF
:100070002A0000000000250028002B0000000000DE
:1000800023002600290004040404040404040202DA
:100090000202020203030303030301020408102007
:1000A0004080010204081020010204081020000012
:1000B0000008000201000003040700000000000027
:1000C0000000FC04650711241FBECFEFD8E0DEBF9F
:1000D000CDBF23E0A2E7B2E001C01D92AA33B20770
:1000E000E1F712E0A0E0B1E0E0EDF3E102C005903D
:1000F0000D92A237B107D9F710E0C2E6D0E004C0F4
:100100002197FE010E94DA07C136D107C9F70E9484
:100110009C050C94DB090C940000833081F028F4DA
:10012000813099F08230A9F008958730A9F08830A5
:10013000C9F08430B1F4809180008F7D03C080913C
:1001400080008F7780938000089584B58F7784BD79
:10015000089584B58F7DFBCF8091B0008F77809319
:10016000B00008958091B0008F7DF9CFCF93DF93D9
:10017000E6EBF0E08491E2EAF0E0D491EEE8F0E022
:10018000C491CC23A1F081110E948D00EC2FF0E0EE
:10019000EE0FFF1FE458FF4FA591B491EC91ED23B2
:1001A00081E090E009F480E0DF91CF91089580E054
:1001B00090E0FACF1F93CF93DF93282F30E0F9011F
:1001C000E255FF4F8491F901E656FF4FD491F901B2
:1001D000EA57FF4FC491CC23A9F0162F81110E943A
:1001E0008D00EC2FF0E0EE0FFF1FEE58FF4FA591B2
:1001F000B4918FB7F894EC91111108C0D095DE231B
:10020000DC938FBFDF91CF911F910895DE2BF8CF44
:10021000CF93DF9390E0FC01E656FF4F24918A577D
:100220009F4FFC0184918823D1F090E0880F991FA3
:10023000FC01E859FF4FA591B491FC01EE58FF4F26
:10024000C591D491623071F49FB7F8943C91822F9C
:10025000809583238C93E8812E2B28839FBFDF9189
:10026000CF9108958FB7F894EC912E2B2C938FBFDC
:10027000F6CF3FB7F8948091770290917802A091E1
:100280007902B0917A0226B5A89B05C02F3F19F0DC
:100290000196A11DB11D3FBFBA2FA92F982F882706
:1002A000BC01CD01620F711D811D911D42E0660FE1
:1002B000771F881F991F4A95D1F708958F929F92B3
:1002C000AF92BF92CF92DF92EF92FF924B015C010F
:1002D0000E9439016B017C010E9439016C197D0972
:1002E0008E099F09683E734081059105A8F321E0BE
:1002F000821A9108A108B10888EEC80E83E0D81EC2
:10030000E11CF11C81149104A104B10429F7FF90B0
:10031000EF90DF90CF90BF90AF909F908F90089517
:10032000AF92BF92CF92DF92EF92FF920F931F9303
:10033000CF93DF936C017B018B01040F151FEB0141
:100340005E01AE18BF08C017D10759F06991D601F8
:10035000ED91FC910190F081E02DC6010995892B6A
:1003600079F7C501DF91CF911F910F91FF90EF9029
:10037000DF90CF90BF90AF900895FC01538D448DD6
:10038000252F30E0842F90E0821B930B541710F040
:10039000CF96089501970895FC01918D828D98174D
:1003A00061F0A28DAE0FBF2FB11D5D968C91928D25
:1003B0009F5F9F73928F90E008958FEF9FEF089556
:1003C000FC01918D828D981731F0828DE80FF11D1F
:1003D000858D90E008958FEF9FEF0895FC01918D3A
:1003E000228D892F90E0805C9F4F821B91098F7333
:1003F000992708958BE792E00E94EE0121E0892B76
:1004000009F420E0822F089580E090E0892B29F004
:100410000E94FA0181110C9400000895FC01A48D42
:10042000A80FB92FB11DA35ABF4F2C91848D90E016
:1004300001968F739927848FA689B7892C93A089F9
:10044000B1898C91837080648C93938D848D981383
:1004500006C00288F389E02D80818F7D8083089516
:10046000EF92FF920F931F93CF93DF93EC0181E004
:10047000888F9B8D8C8D98131AC0E889F9898081AB
:1004800085FF15C09FB7F894EE89FF896083E889DE
:10049000F98980818370806480839FBF81E090E0D0
:1004A000DF91CF911F910F91FF90EF900895F62E5D
:1004B0000B8D10E00F5F1F4F0F731127E02E8C8DF7
:1004C0008E110CC00FB607FCFACFE889F98980813C
:1004D00085FFF5CFCE010E940E02F1CFEB8DEC0F20
:1004E000FD2FF11DE35AFF4FF0829FB7F8940B8F59
:1004F000EA89FB8980818062CFCFCF93DF93EC01C3
:10050000888D8823B9F0AA89BB89E889F9898C91FB
:1005100085FD03C0808186FD0DC00FB607FCF7CFB7
:100520008C9185FFF2CF808185FFEDCFCE010E94B7
:100530000E02E9CFDF91CF910895089590E080E019
:100540000895CF93DF93EC0160E08E810E94DA0082
:1005500061E08E810E94DA0060E08E810E94DA0004
:100560008BE891E00197F1F7DF91CF910895CF9259
:10057000DF92EF92FF920F931F93CF93DF936C0163
:100580007C0187E0E80EF11CD0E0C0E0062F10E00F
:10059000B8010C2E02C0759567950A94E2F7617058
:1005A000F70181917F010E94DA002196C430D105C4
:1005B00079F7C601DF91CF911F910F91FF90EF90D6
:1005C000DF90CF900C94A102CF92DF92EF92FF9236
:1005D0000F931F93CF93DF93EC01F62E642F8C8142
:1005E0000E94DA008D818F3F19F060E00E94DA00EE
:1005F0000F2D10E08F8584FF25C06E0187E0C80EA7
:10060000D11CF12CE12CB8010E2C02C07595679518
:100610000A94E2F76170F60181916F010E94DA009D
:10062000FFEFEF1AFF0A88E0E816F10461F7CE0148
:10063000DF91CF911F910F91FF90EF90DF90CF90BE
:100640000C94A102B80184E0759567958A95E1F74D
:10065000CE010E94B7026F2DCE01DF91CF911F9185
:100660000F91FF90EF90DF90CF900C94B70240E095
:10067000682F8EE193E00C94E40281E00E9437033E
:100680008BE39FE10197F1F70895CF93DF938230D9
:1006900029F490912D03986090932D03809331035A
:1006A0001092320380E48093330380E1809334031B
:1006B00080E58093350361E0809122030E94080168
:1006C000809123038F3F19F061E00E94080161E0EF
:1006D000809124030E940801CEE1D3E09E012E51B7
:1006E000334080912D0384FD0BC084E090E021967F
:1006F0002817390744F461E08E810E940801EECF8B
:1007000088E090E0F4CF8BE39DE00197F1F760E0A3
:10071000809122030E94DA0060E0809124030E940D
:10072000DA00809123038F3F19F060E00E94DA0025
:1007300080912D0384FD34C063E08EE193E00E943C
:10074000B702CBE4D6E4CE010197F1F763E08EE186
:1007500093E00E94B7022197F1F763E08EE193E006
:100760000E94B70283E592E00197F1F762E08EE123
:1007700093E00E94B70280912D0380620E943703AC
:1007800084E080932E038CE00E9437030E943D0397
:1007900082E080932F0386E0DF91CF910C943703A2
:1007A00080620E9437038BE496E40197F1F7809111
:1007B0002D0380620E94370383E592E00197F1F7F1
:1007C00080912D0380620E943703D5CF41E00E94C3
:1007D000E40281E090E00895FB0101900020E9F738
:1007E0003197AF01461B570BDC01ED91FC91028064
:1007F000F381E02D0994BC018EE193E00C94EC03AD
:10080000CF93DF93BC018BE792E00E94EC03EC01F5
:1008100064E271E08BE792E00E94EC038C0F9D1F75
:10082000DF91CF910895CF93DF93EC01809118036E
:1008300090911903009759F020911A0330911B03EE
:100840002C173D0720F081E0DF91CF910895BE0184
:100850006F5F7F4F0E940509009789F090931903FD
:1008600080931803D0931B03C0931A0320911C0399
:1008700030911D03232B39F7FC011082E4CF80E077
:10088000E3CF20911C0330911D03232B39F421E089
:10089000FC018081882361F020E00AC0BC018091C6
:1008A0001803909119030E94CB0921E0892BA1F72D
:1008B000822F08951F920F920FB60F9211242F933B
:1008C0003F938F939F93AF93BF93809173029091C7
:1008D0007402A0917502B09176023091720223E009
:1008E000230F2D3758F50196A11DB11D20937202DB
:1008F0008093730290937402A0937502B093760272
:100900008091770290917802A0917902B0917A0259
:100910000196A11DB11D8093770290937802A09358
:100920007902B0937A02BF91AF919F918F913F91DD
:100930002F910F900FBE0F901F90189526E8230F50
:100940000296A11DB11DD2CF1F920F920FB60F922A
:1009500011242F933F934F935F936F937F938F93C4
:100960009F93AF93BF93EF93FF938BE792E00E9427
:100970000E02FF91EF91BF91AF919F918F917F9167
:100980006F915F914F913F912F910F900FBE0F90FC
:100990001F9018951F920F920FB60F9211242F934C
:1009A0008F939F93EF93FF93E0918B02F0918C02D2
:1009B0008081E0919102F091920282FD1BC09081B2
:1009C000809194028F5F8F7320919502821741F07E
:1009D000E0919402F0E0E558FD4F958F80939402EA
:1009E000FF91EF919F918F912F910F900FBE0F90DC
:1009F0001F9018958081F4CF10927E0210927D0294
:100A000088EE93E0A0E0B0E080937F0290938002B4
:100A1000A0938102B09382028AE091E090937C02DD
:100A200080937B0285EC90E090938802809387020C
:100A300084EC90E090938A028093890280EC90E0AD
:100A400090938C0280938B0281EC90E090938E02C5
:100A500080938D0282EC90E09093900280938F02BD
:100A600086EC90E09093920280939102109294020F
:100A70001092950210929602109297021092210302
:100A8000109220038CE191E090931F0380931E034A
:100A900082E0809322038FEF8093230383E080938F
:100AA000240384E08093250385E08093260386E079
:100AB0008093270387E080932803109229031092E4
:100AC0002A0310922B0310922C0310922D0381E025
:100AD0000E944503109219031092180310921B03F1
:100AE00010921A0310921D0310921C0390E080E0F4
:100AF0000E9413042091180330911903811113C02F
:100B00002115310519F0C9010E947C0810921903C2
:100B10001092180310921D0310921C0310921B03D5
:100B200010921A03089510921D0310921C0366E29E
:100B300071E0C9010C94D409CF93DF93CDB7DEB730
:100B400028970FB6F894DEBF0FBECDBF789484B55A
:100B5000826084BD84B5816084BD85B5826085BDB9
:100B600085B5816085BD80916E00816080936E0047
:100B70001092810080918100826080938100809139
:100B800081008160809381008091800081608093EA
:100B900080008091B10084608093B1008091B000AA
:100BA00081608093B00080917A00846080937A00A5
:100BB00080917A00826080937A0080917A008160CF
:100BC00080937A0080917A00806880937A001092F6
:100BD000C100E0918B02F0918C0282E08083E09171
:100BE0008702F09188021082E0918902F0918A02D6
:100BF0008FEC808310929302E0918F02F09190022B
:100C000086E08083E0918D02F0918E028081806188
:100C10008083E0918D02F0918E02808188608083D4
:100C2000E0918D02F0918E02808180688083E09156
:100C30008D02F0918E0280818F7D808362E088E05A
:100C40000E94080182E00E9445030E943D0387E262
:100C500091E00E94FB0368EB7BE080E090E00E9463
:100C60005E010E943D0384E391E00E94FB03E0915A
:100C70003103E23008F016C1E150F0E0E25EFC4FD3
:100C8000848980680E94370385E491E00E94FB0319
:100C900068EB7BE080E090E00E945E018E010F5FD8
:100CA0001F4F80E0C82E80E0D82E0E94B6005C0165
:100CB000A114B10409F0EAC00E94B6007C014AE028
:100CC000B8010E946E07F80101900020E9F7319702
:100CD000E01BF10BE1F080901C0390901D038E0E41
:100CE0009F1EC4010E941304882389F020911803D9
:100CF0003091190380911C0390911D03B801820F5C
:100D0000931F0E94D40990921D0380921C0386E5D4
:100D100092E00E944104882351F085E591E00E9411
:100D200000040E943D0387E691E00E94FB0385E5F5
:100D300092E00E944104882351F08AE691E00E94EB
:100D400000040E943D038CE791E00E94FB0384E5D0
:100D500092E00E944104882351F082E891E00E94D1
:100D600000040E943D0384E991E00E94FB0383E5B7
:100D700092E00E944104882351F081EA91E00E94B0
:100D800000040E943D0383EB91E00E94FB0382E597
:100D900092E00E944104882351F08DEB91E00E9483
:100DA00000040E943D038FEC91E00E94FB0381E56B
:100DB00092E00E944104882351F082ED91E00E946C
:100DC00000040E943D0384EE91E00E94FB0380E555
:100DD00092E00E944104882351F081EF91E00E944B
:100DE00000040E943D0383E092E00E94FB038FE435
:100DF00092E00E944104882351F082E192E00E9437
:100E000000040E943D0384E292E00E94FB038EE412
:100E100092E00E944104882351F081E392E00E9415
:100E200000040E943D0383E492E00E94FB038DE4F2
:100E300092E00E944104882351F08AE592E00E94EA
:100E400000040E943D038CE692E00E94FB03EA94BA
:100E5000EF28A1F590E080E00E9413042091180390
:100E600030911903811120C02115310519F0C901F4
:100E70000E947C08109219031092180310921D030F
:100E800010921C0310921B0310921A03C114D10478
:100E900009F40BCF0E94FA01882309F406CF0E94BF
:100EA000000003CFE1E0E9CE10921D0310921C0375
:100EB00066E271E0C9010E94D409E8CF68EC70E0F5
:100EC00080E090E00E945E01F3CE80911803909143
:100ED0001903009711F00C947C080895BB274A3041
:100EE00031F4992322F4BDE2909581959F4F0C94A3
:100EF0007A07BB27FB015527AA27880F991FAA1F2E
:100F0000A41710F0A41B83955051B9F7A05DAA3324
:100F100008F0A95DA193009779F7B111B1931192EF
:100F2000CB010C949307DC01FC01672F71917723AF
:100F3000E1F7329704C07C916D9370836291AE1794
:100F4000BF07C8F308952F923F924F925F926F921E
:100F50007F928F929F92AF92BF92CF92DF92EF9249
:100F6000FF920F931F93CF93DF93CDB7DEB7CA1BCA
:100F7000DB0B0FB6F894DEBF0FBECDBF09942A88F5
:100F8000398848885F846E847D848C849B84AA849D
:100F9000B984C884DF80EE80FD800C811B81AA812A
:100FA000B981CE0FD11D0FB6F894DEBF0FBECDBFF5
:100FB000ED010895EE0FFF1F0590F491E02D0994C7
:100FC0000F931F93CF93DF938230910510F482E04B
:100FD00090E0E0913803F091390330E020E0B0E098
:100FE000A0E0309799F42115310509F44AC0281B77
:100FF000390B24303105D8F58A819B816115710543
:1010000089F1FB0193838283FE0111C040815181EC
:101010000281138148175907E0F04817590799F4DE
:10102000109761F012960C93129713961C933296B8
:10103000CF01DF91CF911F910F9108950093380355
:1010400010933903F4CF2115310551F0421753079E
:1010500038F0A901DB019A01BD01DF01F801C1CF20
:10106000EF01F9CF9093390380933803CDCFFE0180
:10107000E20FF31F81939193225031093983288322
:10108000D7CF2091360330913703232B41F42091A1
:1010900002013091030130933703209336032091EE
:1010A0000001309101012115310541F42DB73EB702
:1010B0004091040150910501241B350BE09136034A
:1010C000F0913703E217F307A0F42E1B3F0B28170C
:1010D000390778F0AC014E5F5F4F2417350748F0B1
:1010E0004E0F5F1F509337034093360381939193C4
:1010F0009FCFF0E0E0E09CCFCF93DF930097E9F043
:10110000FC01329713821282A0913803B091390307
:10111000ED0130E020E01097A1F420813181820FB1
:10112000931F20913603309137032817390709F0B0
:1011300061C0F0933703E0933603DF91CF910895B8
:10114000EA01CE17DF07E8F54A815B819E01411570
:101150005105B1F7E901FB83EA8349915991C40F25
:10116000D51FEC17FD0761F4808191810296840FF1
:10117000951FE90199838883828193819B838A8368
:10118000F0E0E0E012968D919C9113970097B9F5ED
:101190002D913C911197CD010296820F931F2091C2
:1011A0003603309137032817390739F6309751F550
:1011B0001092390310923803B0933703A09336038B
:1011C000BCCFD383C28340815181840F951FC81740
:1011D000D90761F44E5F5F4F88819981480F591F8D
:1011E000518340838A819B819383828321153105BA
:1011F00009F0B0CFF0933903E09338039ECFFD019F
:10120000DC01C0CF13821282D7CFB0E0A0E0EBE0C8
:10121000F9E00C94A5078C01009751F4CB010E94D2
:10122000E0078C01C801CDB7DEB7E0E10C94C1073F
:10123000FC01E60FF71F9C0122503109E217F3076A
:1012400008F49DC0D901CD91DC911197C617D7073D
:1012500098F0C530D10530F3CE0104978617970773
:1012600008F3C61BD70B2297C193D1936D937C9340
:10127000CF010E947C08D6CF5B01AC1ABD0A4C019D
:101280008C0E9D1EA0913803B0913903512C412C36
:10129000F12CE12C109731F58091360390913703B2
:1012A0008815990509F05CC04616570608F058C025
:1012B0008091000190910101009741F48DB79EB794
:1012C0004091040150910501841B950BE817F90723
:1012D00008F055C0F0933703E0933603F9017183AA
:1012E0006083A0CF8D919C91119712966C9012976C
:1012F00013967C901397A815B90559F56C0142E037
:10130000C40ED11CCA14DB0420F1AC014A195B09DC
:10131000DA011296159780F06282738251834083BE
:10132000D9016D937C93E114F10471F0D701139608
:10133000FC93EE93129776CF22968C0F9D1FF901A6
:1013400091838083F301EFCFF0933903E093380367
:1013500069CF4816590608F42C017D01D3019ACFB4
:10136000CB010E94E0077C01009749F0AE01B80173
:101370000E94C209C8010E947C08870153CF10E077
:1013800000E050CFFB01DC0102C001900D92415002
:101390005040D8F70895FB01DC018D910190801930
:1013A0000110D9F3990B0895FB01DC0101900D9216
:1013B0000020E1F7089510E0C2E6D0E004C0FE018D
:1013C0000E94DA072196C336D107C9F7F894FFCFF8
:1013D00000003A0380000000000030029001BD01CF
:1013E0007D02EE01CC01E00100000000E603900167
:1013F0009E029D020D0A004C6946692050726F6A78
:101400006563740053656E6420616E79206D657349
:10141000736167650066726F6D204C694669204193
:1014200070702E2E005265636569766564206D6567
:1014300073736167653A2068690052656365697610
:101440006564206D6573736167653A2068656C6CCF
:101450006F005265636569766564206D65737361BD
:1014600067653A20686F772061726520796F753FF4
:10147000005265636569766564206D6573736167A5
:10148000653A204920616D2066696E65005265638A
:101490006569766564206D6573736167653A206F71
:1014A0006B005265636569766564206D6573736171
:1014B00067653A20676F6F64206D6F726E696E6743
:1014C000005265636569766564206D657373616755
:1014D000653A20676F6F642061667465726E6F6F26
:1014E0006E005265636569766564206D657373612E
:1014F00067653A20676F6F64206576656E696E6711
:10150000005265636569766564206D657373616714
:10151000653A207468616E6B20796F7500303030E9
:1015200030303030303030303100526563656976AC
:101530006564206D6573736167653A20736F7272BD
:02154000790030
:107E0000112484B714BE81FFF0D085E080938100F7
:107E100082E08093C00088E18093C10086E0809377
:107E2000C20080E18093C4008EE0C9D0259A86E02C
:107E300020E33CEF91E0309385002093840096BBD3
:107E4000B09BFECF1D9AA8958150A9F7CC24DD24C4
:107E500088248394B5E0AB2EA1E19A2EF3E0BF2EE7
:107E6000A2D0813461F49FD0082FAFD0023811F036
:107E7000013811F484E001C083E08DD089C08234E0
:107E800011F484E103C0853419F485E0A6D080C0E4
:107E9000853579F488D0E82EFF2485D0082F10E0AE
:107EA000102F00270E291F29000F111F8ED06801E7
:107EB0006FC0863521F484E090D080E0DECF843638
:107EC00009F040C070D06FD0082F6DD080E0C81688
:107ED00080E7D80618F4F601B7BEE895C0E0D1E017
:107EE00062D089930C17E1F7F0E0CF16F0E7DF06D8
:107EF00018F0F601B7BEE89568D007B600FCFDCFD4
:107F0000A601A0E0B1E02C9130E011968C91119780
:107F100090E0982F8827822B932B1296FA010C0160
:107F200087BEE89511244E5F5F4FF1E0A038BF0790
:107F300051F7F601A7BEE89507B600FCFDCF97BE46
:107F4000E89526C08437B1F42ED02DD0F82E2BD052
:107F50003CD0F601EF2C8F010F5F1F4F84911BD097
:107F6000EA94F801C1F70894C11CD11CFA94CF0C13
:107F7000D11C0EC0853739F428D08EE10CD085E9AC
:107F80000AD08FE07ACF813511F488E018D01DD067
:107F900080E101D065CF982F8091C00085FFFCCF94
:107FA0009093C60008958091C00087FFFCCF809118
:107FB000C00084FD01C0A8958091C6000895E0E648
:107FC000F0E098E1908380830895EDDF803219F02E
:107FD00088E0F5DFFFCF84E1DECF1F93182FE3DFCA
:107FE0001150E9F7F2DF1F91089580E0E8DFEE27F6
:047FF000FF270994CA
:027FFE00040479
:00000001FF
