:100000000C9463000C948B000C948B000C948B006C
:100010000C948B000C948B000C948B000C948B0034
:100020000C948B000C948B000C948B000C948B0024
:100030000C948B000C948B000C948B000C948B0014
:100040000C94C9050C948B000C9439060C9413067F
:100050000C948B000C948B000C948B000C948B00F4
:100060000C946B060C948B00000000002400270009
:100070002A0000000000250028002B0000000000DE
:1000800023002600290004040404040404040202DA
:100090000202020203030303030301020408102007
:1000A0004080010204081020010204081020000012
:1000B0000008000201000003040700000000000027
:1000C00000008A07250A11241FBECFEFD8E0DEBF4B
:1000D000CDBF24E0ACE8B2E001C01D92AF30B20762
:1000E000E1F712E0A0E0B1E0E0E5F9E102C005903F
:1000F0000D92AC38B107D9F710E0C2E6D0E004C0E9
:100100002197FE010E949A0AC136D107C9F70E94C1
:1001100027080C949B0C0C940000833081F028F489
:10012000813099F08230A9F008958730A9F08830A5
:10013000C9F08430B1F4809180008F7D03C080913C
:1001400080008F7780938000089584B58F7784BD79
:10015000089584B58F7DFBCF8091B0008F77809319
:10016000B00008958091B0008F7DF9CFCF93DF93D9
:10017000E6EBF0E08491E2EAF0E0D491EEE8F0E022
:10018000C491CC23A1F081110E948D00EC2FF0E0EE
:10019000EE0FFF1FE458FF4FA591B491EC91ED23B2
:1001A00081E090E009F480E0DF91CF91089580E054
:1001B00090E0FACF1F93CF93DF93282F30E0F9011F
:1001C000E255FF4F8491F901E656FF4FD491F901B2
:1001D000EA57FF4FC491CC23A9F0162F81110E943A
:1001E0008D00EC2FF0E0EE0FFF1FEE58FF4FA591B2
:1001F000B4918FB7F894EC91111108C0D095DE231B
:10020000DC938FBFDF91CF911F910895DE2BF8CF44
:100210003FB7F89480914B0390914C03A0914D030C
:10022000B0914E0326B5A89B05C02F3F19F001964B
:10023000A11DB11D3FBFBA2FA92F982F8827BC0140
:10024000CD01620F711D811D911D42E0660F771F68
:10025000881F991F4A95D1F708958F929F92AF9268
:10026000BF92CF92DF92EF92FF924B015C010E940E
:1002700008016B017C010E9408016C197D098E093F
:100280009F09683E734081059105A8F321E0821A19
:100290009108A108B10888EEC80E83E0D81EE11CC1
:1002A000F11C81149104A104B10429F7FF90EF908F
:1002B000DF90CF90BF90AF909F908F90089508955A
:1002C0000895AF92BF92CF92DF92EF92FF920F9379
:1002D0001F93CF93DF936C017B018B01040F151FDC
:1002E000EB015E01AE18BF08C017D10759F0699144
:1002F000D601ED91FC910190F081E02DC6010995A8
:10030000892B79F7C501DF91CF911F910F91FF9054
:10031000EF90DF90CF90BF90AF900895FC01538D88
:10032000448D252F30E0842F90E0821B930B5417CF
:1003300010F0CF96089501970895FC01918D828D5C
:10034000981761F0A28DAE0FBF2FB11D5D968C91F5
:10035000928D9F5F9F73928F90E008958FEF9FEF34
:100360000895FC01918D828D981731F0828DE80FF0
:10037000F11D858D90E008958FEF9FEF0895FC01AA
:10038000918D228D892F90E0805C9F4F821B910977
:100390008F73992708958FE493E00E94BF0121E0B5
:1003A000892B09F420E0822F089580E090E0892BCA
:1003B00029F00E94CB0181110C9400000895FC01EA
:1003C000A48DA80FB92FB11DA35ABF4F2C91848DB6
:1003D00090E001968F739927848FA689B7892C9313
:1003E000A089B1898C91837080648C93938D848D66
:1003F000981306C00288F389E02D80818F7D808369
:100400000895EF92FF920F931F93CF93DF93EC0128
:1004100081E0888F9B8D8C8D98131AC0E889F989AB
:10042000808185FF15C09FB7F894EE89FF896083AE
:10043000E889F98980818370806480839FBF81E02F
:1004400090E0DF91CF911F910F91FF90EF90089571
:10045000F62E0B8D10E00F5F1F4F0F731127E02E4C
:100460008C8D8E110CC00FB607FCFACFE889F98984
:10047000808185FFF5CFCE010E94DF01F1CFEB8DAA
:10048000EC0FFD2FF11DE35AFF4FF0829FB7F89458
:100490000B8FEA89FB8980818062CFCFCF93DF9376
:1004A000EC01888D8823B9F0AA89BB89E889F9898C
:1004B0008C9185FD03C0808186FD0DC00FB607FCC1
:1004C000F7CF8C9185FFF2CF808185FFEDCFCE01F4
:1004D0000E94DF01E9CFDF91CF9108952091F402CE
:1004E000260F3327331F21323105ECF420911803F6
:1004F000FC0190E080E0243069F082E00895A09152
:10050000F4022191AC014C525D4FA40FB52FB11DE7
:100510002C930196861798F38091F402680F6093EC
:10052000F40280E0089581E008951092180381E0BC
:1005300080931A031092190361E082E10E94DA00AD
:1005400061E083E10E94DA00E9EBF0E080818E7FD8
:10055000808380818D7F808388E48093B80085E4E8
:100560008093BC000895CF93DF9391E09093D302E2
:100570008823B9F0C091B800D091BA008091BC0036
:100580008A7B8093BC0060E082E10E94DA0060E038
:1005900083E10E94DA000E949502D093BA00C093D2
:1005A000B800DF91CF9108950895E09145038091BF
:1005B0004403E81730F4F0E0E255FD4F808190E00D
:1005C00008958FEF9FEF0895909145038091440324
:1005D0002FEF3FEF981748F4E92FF0E0E255FD4F79
:1005E000208130E09F5F90934503C9010895809179
:1005F000440390914503891B990B0895CF92DF9294
:10060000EF92FF920F931F93CF93DF937C01CB0167
:100610008A012091AD02222389F0EB016B01C40E07
:10062000D51ECC15DD0569F06991D701ED91FC91DE
:100630000190F081E02DC7010995F3CF642F0E944E
:100640006E02C801DF91CF911F910F91FF90EF9043
:10065000DF90CF900895CF93DF931F92CDB7DEB791
:1006600069832091AD022223F9F0209142032032C8
:1006700058F021E030E0FC013383228390E080E0F9
:100680000F90DF91CF91089580914303E82FF0E020
:10069000E357FD4F998190838F5F8093430380934D
:1006A000420381E090E0ECCF61E0CE0101960E9430
:1006B0006E02F7CFCF92DF92EF92FF920F931F93CC
:1006C000CF93DF93FC01C48121E02093AD02C0935E
:1006D0008C0210924303109242038485682B8CEEA7
:1006E00093E00E942B03D0914203D13208F092C0D4
:1006F0000E9408016B017C0180911803811165C083
:1007000082E08093180381E080931A038FEF809337
:10071000170310923C03D0933B03ADE8B2E0EBE14A
:10072000F3E080E0D81385C010923D0380913D0333
:10073000CC0FC82BC0933D0380911903813009F081
:100740007CC0109219030E9408016B017C0180910A
:100750003D038093BB008091CF029091D002A09185
:10076000D102B091D202892B8A2B8B2B99F00E9457
:1007700008010091CF021091D0022091D102309156
:10078000D2026C197D098E099F09061717072807E1
:100790003907E0F18091BC0083FDD9CF85EC8093CF
:1007A000BC000E9408016B017C018091180382301B
:1007B00009F445C0809117038F3F61F180911703C1
:1007C000803241F18091170325C08091CF02909132
:1007D000D002A091D102B091D202892B8A2B8B2B0F
:1007E00009F48ACF0E9408010091CF021091D00233
:1007F0002091D1023091D2026C197D098E099F0996
:10080000061717072807390708F076CF8091CE0220
:100810000E94B30210924303109242031092AD0261
:10082000DF91CF911F910F91FF90EF90DF90CF90CC
:1008300008959D9191938F5F75CF85EEB0CF809194
:10084000CF029091D002A091D102B091D202892B17
:100850008A2B8B2B09F4A9CF0E9408010091CF02AB
:100860001091D0022091D1023091D2026C197D09F1
:100870008E099F09061717072807390708F095CF33
:10088000C5CF089590E080E008950F931F93CF9314
:100890008C01C62F0E945A036C2F6460C8010E940D
:1008A0005A036C2F6B7FC8010E945A0383EC90E0BF
:1008B0000197F1F7CF911F910F9108950F931F9317
:1008C000CF93DF938C01D62FC42F607F642B0E94BF
:1008D000450480E1D89FB00111246C2BC801DF9141
:1008E000CF911F910F910C944504CF93DF93CDB717
:1008F000DEB728970FB6F894DEBF0FBECDBF98E0E5
:10090000E6E0F1E0DE01119601900D929A95E1F793
:1009100090910604981708F48FEF90E0880F991FC4
:1009200021E030E02C0F3D1F820F931FFC016081FE
:10093000606840E08EEF93E028960FB6F894DEBF33
:100940000FBECDBFDF91CF910C945E0440E061E01B
:100950008EEF93E00E945E048BE39FE10197F1F735
:1009600080910704882319F080E00C9475040895A1
:10097000CF93DF93823028F0909103049860909396
:1009800003048093060462E370E080E090E00E943C
:100990002D0160910A048EEF93E00E945A0368EEE5
:1009A00073E080E090E00E942D0160E38EEF93E021
:1009B0000E944504CBE4D6E4CE010197F1F760E351
:1009C0008EEF93E00E9445042197F1F760E38EEFEC
:1009D00093E00E94450483E592E00197F1F760E21D
:1009E0008EEF93E00E94450460910304606240E052
:1009F0008EEF93E00E945E0484E08093040440E064
:100A00006CE08EEF93E00E945E040E94A60482E0F8
:100A10008093050440E066E08EEF93E00E945E0460
:100A200040E062E08EEF93E00E945E048BE39FE182
:100A30000197F1F7DF91CF91089541E00E945E04A4
:100A400081E090E00895FB0101900020E9F73197E3
:100A5000AF01461B570BDC01ED91FC910280F38145
:100A6000E02D0994BC018EEF93E00C942305CF9305
:100A7000DF93BC018FE493E00E942305EC016EE359
:100A800071E08FE493E00E9423058C0F9D1FDF919E
:100A9000CF910895CF93DF93EC018091F80390916B
:100AA000F903009759F02091FA033091FB032C17BA
:100AB0003D0720F081E0DF91CF910895BE016F5F87
:100AC0007F4F0E94C50B009789F09093F9038093A4
:100AD000F803D093FB03C093FA032091FC033091F9
:100AE000FD03232B39F7FC011082E4CF80E0E3CF34
:100AF0002091FC033091FD03232B39F421E0FC010C
:100B00008081882361F020E00AC0BC018091F80355
:100B10009091F9030E948B0C21E0892BA1F7822F81
:100B2000089585ED8093BC008091CF029091D00212
:100B3000A091D102B091D2020796A11DB11D23E070
:100B4000B695A795979587952A95D1F72091BC00E2
:100B500024FD03C01092180308954091CF025091D4
:100B6000D0026091D1027091D202452B462B472BC7
:100B700069F30097A105B10541F02AE22A95F1F742
:100B800000C00197A109B109E1CF8091CE020C9478
:100B9000B3021F920F920FB60F9211242F933F931F
:100BA0008F939F93AF93BF93809147039091480396
:100BB000A0914903B0914A033091460323E0230FEB
:100BC0002D3758F50196A11DB11D20934603809342
:100BD000470390934803A0934903B0934A0380913D
:100BE0004B0390914C03A0914D03B0914E0301969D
:100BF000A11DB11D80934B0390934C03A0934D0313
:100C0000B0934E03BF91AF919F918F913F912F91E0
:100C10000F900FBE0F901F90189526E8230F029695
:100C2000A11DB11DD2CF1F920F920FB60F921124AA
:100C30002F933F934F935F936F937F938F939F93E4
:100C4000AF93BF93EF93FF938FE493E00E94DF0194
:100C5000FF91EF91BF91AF919F918F917F916F9194
:100C60005F914F913F912F910F900FBE0F901F906A
:100C700018951F920F920FB60F9211242F938F93F6
:100C80009F93EF93FF93E0915F03F0916003808166
:100C9000E0916503F091660382FD1BC09081809115
:100CA00068038F5F8F7320916903821741F0E09191
:100CB0006803F0E0E15BFC4F958F80936803FF9140
:100CC000EF919F918F912F910F900FBE0F901F90DA
:100CD00018958081F4CF1F920F920FB60F921124B6
:100CE0002F933F934F935F936F937F938F939F9334
:100CF000AF93BF93EF93FF938091B900887F8036C5
:100D000009F44AC0F0F5883209F4A7C018F580311B
:100D100009F49BC0B8F4882309F4F9C0883009F4B9
:100D200094C0FF91EF91BF91AF919F918F917F916F
:100D30006F915F914F913F912F910F900FBE0F9048
:100D40001F901895883109F488C0803251F780933C
:100D5000170314C0803409F49DC040F48033B9F304
:100D60008833F9F68093170385ECB0C0803509F419
:100D700085C0883509F496C0883499F60E9491059B
:100D8000D0CF883909F48CC038F5883729F050F471
:100D9000883611F0803729F683E08093180310928B
:100DA000160357C0883809F47BC0803919F08038A1
:100DB00009F0B7CF80911603803208F071C0E0913E
:100DC000160381E08E0F809316038091BB00F0E044
:100DD000EA50FD4F80833DC0803B39F0E0F4803A1B
:100DE00009F479C0883A09F09CCF84E08093180315
:100DF0001092F5021092F402E0914003F091410349
:100E000009958091F40281110FC081E08093F40272
:100E10001092D40209C0803C09F4A6CF883C09F4A2
:100E2000A3CF883B09F07DCFE091F50281E08E0FE2
:100E30008093F502F0E0EC52FD4F80818093BB007F
:100E40009091F5028091F40229C080913D03809336
:100E5000BB0085EC8093BC0064CF90913C038091F3
:100E60003B03981758F5E0913C0381E08E0F809387
:100E70003C03F0E0E55EFC4F8081E9CFE0913C036C
:100E800081E08E0F80933C038091BB00F0E0E55E33
:100E9000FC4F808390913C0380913B039817C8F2EC
:100EA00085E8D8CFE0913C0381E08E0F80933C032E
:100EB0008091BB00F0E0E55EFC4F808380911A03D7
:100EC00081115CCF81E08093190384EA8093BC0098
:100ED0001092180326CF85EC8093BC001092180363
:100EE00080911603803230F4E0911603F0E0EA506E
:100EF000FD4F10826091160370E0E0913E03F09187
:100F00003F0386EF92E00995109216030ACF1092E4
:100F1000170334CF109252031092510388EE93E0DE
:100F2000A0E0B0E08093530390935403A093550343
:100F3000B093560322E131E03093500320934F03E6
:100F400025EC30E030935C0320935B0324EC30E02D
:100F500030935E0320935D0320EC30E03093600318
:100F600020935F0321EC30E0309362032093610310
:100F700022EC30E0309364032093630326EC30E0EE
:100F800030936603209365031092680310926903FF
:100F900010926A0310926B031092EF031092EE030B
:100FA0008093F0039093F103A093F203B093F303C3
:100FB00084E291E09093ED038093EC03109201049E
:100FC0001092000486E391E09093FF038093FE0368
:100FD0001092070487E28093020480E18093080462
:100FE00082E08093090410920A041092F90310928F
:100FF000F8031092FB031092FA031092FD03109273
:10100000FC0390E080E00E944A052091F8033091B3
:10101000F903811113C02115310519F0C9010E948E
:101020003C0B1092F9031092F8031092FD031092FA
:10103000FC031092FB031092FA0308951092FD0333
:101040001092FC0360E471E0C9010C94940CCF93FE
:10105000DF93CDB7DEB728970FB6F894DEBF0FBE8B
:10106000CDBF789484B5826084BD84B5816084BD31
:1010700085B5826085BD85B5816085BD80916E0036
:10108000816080936E001092810080918100826067
:1010900080938100809181008160809381008091A4
:1010A00080008160809380008091B1008460809393
:1010B000B1008091B00081608093B00080917A008F
:1010C000846080937A0080917A00826080937A00B5
:1010D00080917A00816080937A0080917A008068A4
:1010E00080937A001092C100E0915F03F091600359
:1010F00082E08083E0915B03F0915C031082E091D9
:101100005D03F0915E038FEC808310926703E091A2
:101110006303F091640386E08083E0916103F091C2
:101120006203808180618083E0916103F0916203BA
:10113000808188608083E0916103F0916203808107
:1011400080688083E0916103F091620380818F7DEC
:101150008083E2EAF0E02491EEE8F0E084918823D5
:10116000C9F090E0880F991FFC01E859FF4F4591A5
:101170005491FC01EE58FF4FA591B4919FB7F8949C
:10118000FA013081822F809583238083EC91E22BBA
:10119000EC939FBF109245031092440310924303B7
:1011A000109242030E9495028FE591E090934103D3
:1011B0008093400380E691E090933F0380933E0349
:1011C00010920304809109040E94B80488E080937F
:1011D0000A0460E08EEF93E00E945A0382E00E94CE
:1011E000B8040E94A60481E491E00E94320568EBF5
:1011F0007BE080E090E00E942D010E94A6048EE436
:1012000091E00E94320581E00E9475048FE591E033
:101210000E94320568EB7BE080E090E00E942D01A7
:101220008E010F5F1F4F80E0C82E80E0D82E0E94F5
:10123000B6005C01A114B10409F0EAC00E94B60036
:101240007C014AE0B8010E942E0AF80101900020BA
:10125000E9F73197E01BF10BE1F08090FC039090EF
:10126000FD038E0E9F1EC4010E944A05882389F04B
:101270002091F8033091F9038091FC039091FD03D4
:10128000B801820F931F0E94940C9092FD038092EC
:10129000FC0380E792E00E947805882351F08FE6F6
:1012A00091E00E9437050E94A60481E891E00E9427
:1012B00032058FE692E00E947805882351F084E899
:1012C00091E00E9437050E94A60486E991E00E9401
:1012D00032058EE692E00E947805882351F08CE971
:1012E00091E00E9437050E94A6048EEA91E00E94D8
:1012F00032058DE692E00E947805882351F08BEB51
:1013000091E00E9437050E94A6048DEC91E00E94B6
:1013100032058CE692E00E947805882351F087ED33
:1013200091E00E9437050E94A60489EE91E00E9498
:1013300032058BE692E00E947805882351F08CEE0E
:1013400091E00E9437050E94A6048EEF91E00E9472
:1013500032058AE692E00E947805882351F08BE0FE
:1013600092E00E9437050E94A6048DE192E00E945F
:10137000320589E692E00E947805882351F08CE2DC
:1013800092E00E9437050E94A6048EE392E00E943C
:10139000320588E692E00E947805882351F08BE4BC
:1013A00092E00E9437050E94A6048DE592E00E941B
:1013B000320587E692E00E947805882351F084E7A1
:1013C00092E00E9437050E94A60486E892E00E94FF
:1013D0003205EA94EF2891F590E080E00E944A05FA
:1013E0002091F8033091F90381111EC021153105B8
:1013F00019F0C9010E943C0B1092F9031092F803F6
:101400001092FD031092FC031092FB031092FA035A
:10141000C114D10409F40BCF0E94CB01882309F435
:1014200006CF0E94000003CF1092FD031092FC0330
:1014300060E471E0C9010E94940CEACF68EC70E0AE
:1014400080E090E00E942D01F5CE8091F80390910C
:10145000F903009711F00C943C0B0895BB274A3018
:1014600031F4992322F4BDE2909581959F4F0C941D
:101470003A0ABB27FB015527AA27880F991FAA1FE5
:10148000A41710F0A41B83955051B9F7A05DAA339F
:1014900008F0A95DA193009779F7B111B19311926A
:1014A000CB010C94530ADC01FC01672F7191772367
:1014B000E1F7329704C07C916D9370836291AE170F
:1014C000BF07C8F308952F923F924F925F926F9299
:1014D0007F928F929F92AF92BF92CF92DF92EF92C4
:1014E000FF920F931F93CF93DF93CDB7DEB7CA1B45
:1014F000DB0B0FB6F894DEBF0FBECDBF09942A8870
:10150000398848885F846E847D848C849B84AA8417
:10151000B984C884DF80EE80FD800C811B81AA81A4
:10152000B981CE0FD11D0FB6F894DEBF0FBECDBF6F
:10153000ED010895EE0FFF1F0590F491E02D099441
:101540000F931F93CF93DF938230910510F482E0C5
:1015500090E0E0910D04F0910E0430E020E0B0E066
:10156000A0E0309799F42115310509F44AC0281BF1
:10157000390B24303105D8F58A819B8161157105BD
:1015800089F1FB0193838283FE0111C04081518167
:101590000281138148175907E0F04817590799F459
:1015A000109761F012960C93129713961C93329633
:1015B000CF01DF91CF911F910F91089500930D04FA
:1015C00010930E04F4CF2115310551F04217530743
:1015D00038F0A901DB019A01BD01DF01F801C1CF9B
:1015E000EF01F9CF90930E0480930D04CDCFFE014F
:1015F000E20FF31F8193919322503109398328839D
:10160000D7CF20910B0430910C04232B41F420916F
:1016100002013091030130930C0420930B042091BC
:101620000001309101012115310541F42DB73EB77C
:101630004091040150910501241B350BE0910B04EE
:10164000F0910C04E217F307A0F42E1B3F0B2817B0
:10165000390778F0AC014E5F5F4F2417350748F02B
:101660004E0F5F1F50930C0440930B048193919392
:101670009FCFF0E0E0E09CCFCF93DF930097E9F0BD
:10168000FC01329713821282A0910D04B0910E04D6
:10169000ED0130E020E01097A1F420813181820F2C
:1016A000931F20910B0430910C042817390709F07F
:1016B00061C0F0930C04E0930B04DF91CF91089587
:1016C000EA01CE17DF07E8F54A815B819E014115EB
:1016D0005105B1F7E901FB83EA8349915991C40FA0
:1016E000D51FEC17FD0761F4808191810296840F6C
:1016F000951FE90199838883828193819B838A83E3
:10170000F0E0E0E012968D919C9113970097B9F567
:101710002D913C911197CD010296820F931F20913C
:101720000B0430910C042817390739F6309751F51E
:1017300010920E0410920D04B0930C04A0930B04AD
:10174000BCCFD383C28340815181840F951FC817BA
:10175000D90761F44E5F5F4F88819981480F591F07
:10176000518340838A819B81938382832115310534
:1017700009F0B0CFF0930E04E0930D049ECFFD016D
:10178000DC01C0CF13821282D7CFB0E0A0E0EBEC37
:10179000FBE00C94650A8C01009751F4CB010E9488
:1017A000A00A8C01C801CDB7DEB7E0E10C94810A34
:1017B000FC01E60FF71F9C0122503109E217F307E5
:1017C00008F49DC0D901CD91DC911197C617D707B8
:1017D00098F0C530D10530F3CE01049786179707EE
:1017E00008F3C61BD70B2297C193D1936D937C93BB
:1017F000CF010E943C0BD6CF5B01AC1ABD0A4C0155
:101800008C0E9D1EA0910D04B0910E04512C412C04
:10181000F12CE12C109731F580910B0490910C0480
:101820008815990509F05CC04616570608F058C09F
:101830008091000190910101009741F48DB79EB70E
:101840004091040150910501841B950BE817F9079D
:1018500008F055C0F0930C04E0930B04F901718378
:101860006083A0CF8D919C91119712966C901297E6
:1018700013967C901397A815B90559F56C0142E0B1
:10188000C40ED11CCA14DB0420F1AC014A195B0957
:10189000DA011296159780F0628273825183408339
:1018A000D9016D937C93E114F10471F0D701139683
:1018B000FC93EE93129776CF22968C0F9D1FF90121
:1018C00091838083F301EFCFF0930E04E0930D0436
:1018D00069CF4816590608F42C017D01D3019ACF2F
:1018E000CB010E94A00A7C01009749F0AE01B8012B
:1018F0000E94820CC8010E943C0B870153CF10E06C
:1019000000E050CFFB01DC0102C001900D9241507C
:101910005040D8F70895FB01DC018D9101908019AA
:101920000110D9F3990B0895FB01DC0101900D9290
:101930000020E1F7089510E0C2E6D0E004C0FE0107
:101940000E949A0A2196C336D107C9F7F894FFCFAF
:1019500000000F048000000040001400540000004C
:101960000000010261018E014E02BF019D01B10123
:10197000000000002B03FE024204D402F702E4023E
:10198000D502000000001D056101420441040D0A5A
:10199000004C6946692050726F6A65637400536534
:1019A0006E6420616E79206D657373616765006692
:1019B000726F6D204C694669204170702E2E005266
:1019C00065636569766564206D6573736167653A03
:1019D000206869005265636569766564206D65738A
:1019E000736167653A2068656C6C6F00526563656A
:1019F00069766564206D6573736167653A20686F09
:101A0000772061726520796F753F00526563656963
:101A1000766564206D6573736167653A204920615E
:101A20006D2066696E650052656365697665642040
:101A30006D6573736167653A206F6B00526563650E
:101A400069766564206D6573736167653A20676FB9
:101A50006F64206D6F726E696E67005265636569B1
:101A6000766564206D6573736167653A20676F6F93
:101A7000642061667465726E6F6F6E005265636597
:101A800069766564206D6573736167653A20676F79
:101A90006F64206576656E696E670052656365697F
:101AA000766564206D6573736167653A207468615B
:101AB0006E6B20796F750030303030303030303020
:101AC000303031005265636569766564206D6573F9
:0C1AD000736167653A20736F72727900D1
:00000001FF
